{
    "_format": "hh-sol-artifact-1",
    "contractName": "Domains",
    "sourceName": "contracts/Domains.sol",
    "abi": [
        {
            "inputs": [
                {
                    "internalType": "string",
                    "name": "_tld",
                    "type": "string"
                }
            ],
            "stateMutability": "payable",
            "type": "constructor"
        },
        {
            "inputs": [],
            "name": "AlreadyRegistered",
            "type": "error"
        },
        {
            "inputs": [
                {
                    "internalType": "string",
                    "name": "name",
                    "type": "string"
                }
            ],
            "name": "InvalidName",
            "type": "error"
        },
        {
            "inputs": [],
            "name": "Unauthorized",
            "type": "error"
        },
        {
            "anonymous": false,
            "inputs": [
                {
                    "indexed": true,
                    "internalType": "address",
                    "name": "owner",
                    "type": "address"
                },
                {
                    "indexed": true,
                    "internalType": "address",
                    "name": "approved",
                    "type": "address"
                },
                {
                    "indexed": true,
                    "internalType": "uint256",
                    "name": "tokenId",
                    "type": "uint256"
                }
            ],
            "name": "Approval",
            "type": "event"
        },
        {
            "anonymous": false,
            "inputs": [
                {
                    "indexed": true,
                    "internalType": "address",
                    "name": "owner",
                    "type": "address"
                },
                {
                    "indexed": true,
                    "internalType": "address",
                    "name": "operator",
                    "type": "address"
                },
                {
                    "indexed": false,
                    "internalType": "bool",
                    "name": "approved",
                    "type": "bool"
                }
            ],
            "name": "ApprovalForAll",
            "type": "event"
        },
        {
            "anonymous": false,
            "inputs": [
                {
                    "indexed": true,
                    "internalType": "address",
                    "name": "from",
                    "type": "address"
                },
                {
                    "indexed": true,
                    "internalType": "address",
                    "name": "to",
                    "type": "address"
                },
                {
                    "indexed": true,
                    "internalType": "uint256",
                    "name": "tokenId",
                    "type": "uint256"
                }
            ],
            "name": "Transfer",
            "type": "event"
        },
        {
            "inputs": [
                {
                    "internalType": "address",
                    "name": "to",
                    "type": "address"
                },
                {
                    "internalType": "uint256",
                    "name": "tokenId",
                    "type": "uint256"
                }
            ],
            "name": "approve",
            "outputs": [],
            "stateMutability": "nonpayable",
            "type": "function"
        },
        {
            "inputs": [
                {
                    "internalType": "address",
                    "name": "owner",
                    "type": "address"
                }
            ],
            "name": "balanceOf",
            "outputs": [
                {
                    "internalType": "uint256",
                    "name": "",
                    "type": "uint256"
                }
            ],
            "stateMutability": "view",
            "type": "function"
        },
        {
            "inputs": [
                {
                    "internalType": "string",
                    "name": "",
                    "type": "string"
                }
            ],
            "name": "domains",
            "outputs": [
                {
                    "internalType": "address",
                    "name": "",
                    "type": "address"
                }
            ],
            "stateMutability": "view",
            "type": "function"
        },
        {
            "inputs": [
                {
                    "internalType": "string",
                    "name": "name",
                    "type": "string"
                }
            ],
            "name": "getAddress",
            "outputs": [
                {
                    "internalType": "address",
                    "name": "",
                    "type": "address"
                }
            ],
            "stateMutability": "view",
            "type": "function"
        },
        {
            "inputs": [],
            "name": "getAllNames",
            "outputs": [
                {
                    "internalType": "string[]",
                    "name": "",
                    "type": "string[]"
                }
            ],
            "stateMutability": "view",
            "type": "function"
        },
        {
            "inputs": [
                {
                    "internalType": "uint256",
                    "name": "tokenId",
                    "type": "uint256"
                }
            ],
            "name": "getApproved",
            "outputs": [
                {
                    "internalType": "address",
                    "name": "",
                    "type": "address"
                }
            ],
            "stateMutability": "view",
            "type": "function"
        },
        {
            "inputs": [
                {
                    "internalType": "string",
                    "name": "name",
                    "type": "string"
                }
            ],
            "name": "getRecord",
            "outputs": [
                {
                    "internalType": "string",
                    "name": "",
                    "type": "string"
                }
            ],
            "stateMutability": "view",
            "type": "function"
        },
        {
            "inputs": [
                {
                    "internalType": "address",
                    "name": "owner",
                    "type": "address"
                },
                {
                    "internalType": "address",
                    "name": "operator",
                    "type": "address"
                }
            ],
            "name": "isApprovedForAll",
            "outputs": [
                {
                    "internalType": "bool",
                    "name": "",
                    "type": "bool"
                }
            ],
            "stateMutability": "view",
            "type": "function"
        },
        {
            "inputs": [],
            "name": "isOwner",
            "outputs": [
                {
                    "internalType": "bool",
                    "name": "",
                    "type": "bool"
                }
            ],
            "stateMutability": "view",
            "type": "function"
        },
        {
            "inputs": [],
            "name": "name",
            "outputs": [
                {
                    "internalType": "string",
                    "name": "",
                    "type": "string"
                }
            ],
            "stateMutability": "view",
            "type": "function"
        },
        {
            "inputs": [
                {
                    "internalType": "uint256",
                    "name": "",
                    "type": "uint256"
                }
            ],
            "name": "names",
            "outputs": [
                {
                    "internalType": "string",
                    "name": "",
                    "type": "string"
                }
            ],
            "stateMutability": "view",
            "type": "function"
        },
        {
            "inputs": [],
            "name": "owner",
            "outputs": [
                {
                    "internalType": "address payable",
                    "name": "",
                    "type": "address"
                }
            ],
            "stateMutability": "view",
            "type": "function"
        },
        {
            "inputs": [
                {
                    "internalType": "uint256",
                    "name": "tokenId",
                    "type": "uint256"
                }
            ],
            "name": "ownerOf",
            "outputs": [
                {
                    "internalType": "address",
                    "name": "",
                    "type": "address"
                }
            ],
            "stateMutability": "view",
            "type": "function"
        },
        {
            "inputs": [
                {
                    "internalType": "string",
                    "name": "name",
                    "type": "string"
                }
            ],
            "name": "price",
            "outputs": [
                {
                    "internalType": "uint256",
                    "name": "",
                    "type": "uint256"
                }
            ],
            "stateMutability": "pure",
            "type": "function"
        },
        {
            "inputs": [
                {
                    "internalType": "string",
                    "name": "",
                    "type": "string"
                }
            ],
            "name": "records",
            "outputs": [
                {
                    "internalType": "string",
                    "name": "",
                    "type": "string"
                }
            ],
            "stateMutability": "view",
            "type": "function"
        },
        {
            "inputs": [
                {
                    "internalType": "string",
                    "name": "name",
                    "type": "string"
                }
            ],
            "name": "register",
            "outputs": [],
            "stateMutability": "payable",
            "type": "function"
        },
        {
            "inputs": [
                {
                    "internalType": "address",
                    "name": "from",
                    "type": "address"
                },
                {
                    "internalType": "address",
                    "name": "to",
                    "type": "address"
                },
                {
                    "internalType": "uint256",
                    "name": "tokenId",
                    "type": "uint256"
                }
            ],
            "name": "safeTransferFrom",
            "outputs": [],
            "stateMutability": "nonpayable",
            "type": "function"
        },
        {
            "inputs": [
                {
                    "internalType": "address",
                    "name": "from",
                    "type": "address"
                },
                {
                    "internalType": "address",
                    "name": "to",
                    "type": "address"
                },
                {
                    "internalType": "uint256",
                    "name": "tokenId",
                    "type": "uint256"
                },
                {
                    "internalType": "bytes",
                    "name": "_data",
                    "type": "bytes"
                }
            ],
            "name": "safeTransferFrom",
            "outputs": [],
            "stateMutability": "nonpayable",
            "type": "function"
        },
        {
            "inputs": [
                {
                    "internalType": "address",
                    "name": "operator",
                    "type": "address"
                },
                {
                    "internalType": "bool",
                    "name": "approved",
                    "type": "bool"
                }
            ],
            "name": "setApprovalForAll",
            "outputs": [],
            "stateMutability": "nonpayable",
            "type": "function"
        },
        {
            "inputs": [
                {
                    "internalType": "string",
                    "name": "name",
                    "type": "string"
                },
                {
                    "internalType": "string",
                    "name": "record",
                    "type": "string"
                }
            ],
            "name": "setRecord",
            "outputs": [],
            "stateMutability": "nonpayable",
            "type": "function"
        },
        {
            "inputs": [
                {
                    "internalType": "bytes4",
                    "name": "interfaceId",
                    "type": "bytes4"
                }
            ],
            "name": "supportsInterface",
            "outputs": [
                {
                    "internalType": "bool",
                    "name": "",
                    "type": "bool"
                }
            ],
            "stateMutability": "view",
            "type": "function"
        },
        {
            "inputs": [],
            "name": "symbol",
            "outputs": [
                {
                    "internalType": "string",
                    "name": "",
                    "type": "string"
                }
            ],
            "stateMutability": "view",
            "type": "function"
        },
        {
            "inputs": [],
            "name": "tld",
            "outputs": [
                {
                    "internalType": "string",
                    "name": "",
                    "type": "string"
                }
            ],
            "stateMutability": "view",
            "type": "function"
        },
        {
            "inputs": [
                {
                    "internalType": "uint256",
                    "name": "tokenId",
                    "type": "uint256"
                }
            ],
            "name": "tokenURI",
            "outputs": [
                {
                    "internalType": "string",
                    "name": "",
                    "type": "string"
                }
            ],
            "stateMutability": "view",
            "type": "function"
        },
        {
            "inputs": [
                {
                    "internalType": "address",
                    "name": "from",
                    "type": "address"
                },
                {
                    "internalType": "address",
                    "name": "to",
                    "type": "address"
                },
                {
                    "internalType": "uint256",
                    "name": "tokenId",
                    "type": "uint256"
                }
            ],
            "name": "transferFrom",
            "outputs": [],
            "stateMutability": "nonpayable",
            "type": "function"
        },
        {
            "inputs": [
                {
                    "internalType": "string",
                    "name": "name",
                    "type": "string"
                }
            ],
            "name": "valid",
            "outputs": [
                {
                    "internalType": "bool",
                    "name": "",
                    "type": "bool"
                }
            ],
            "stateMutability": "pure",
            "type": "function"
        },
        {
            "inputs": [],
            "name": "withdraw",
            "outputs": [],
            "stateMutability": "nonpayable",
            "type": "function"
        }
    ],
    "bytecode": "0x6080604052604051806108a0016040528061086b81526020016200544d61086b9139600a908051906020019062000038929190620002c8565b506040518060400160405280600d81526020017f3c2f746578743e3c2f7376673e00000000000000000000000000000000000000815250600b908051906020019062000086929190620002c8565b5060405162005cb838038062005cb88339818101604052810190620000ac9190620003ea565b6040518060400160405280601281526020017f4e696e6a61204e616d65205365727669636500000000000000000000000000008152506040518060400160405280600381526020017f4e4e530000000000000000000000000000000000000000000000000000000000815250816000908051906020019062000130929190620002c8565b50806001908051906020019062000149929190620002c8565b50505033600760006101000a81548173ffffffffffffffffffffffffffffffffffffffff021916908373ffffffffffffffffffffffffffffffffffffffff1602179055508060099080519060200190620001a5929190620002c8565b50620001f26040518060400160405280601881526020017f2573206e616d652073657276696365206465706c6f796564000000000000000081525082620001f960201b62001cbb1760201c565b5062000637565b6200029b82826040516024016200021292919062000470565b6040516020818303038152906040527f4b5c4277000000000000000000000000000000000000000000000000000000007bffffffffffffffffffffffffffffffffffffffffffffffffffffffff19166020820180517bffffffffffffffffffffffffffffffffffffffffffffffffffffffff83818316178352505050506200029f60201b60201c565b5050565b60008151905060006a636f6e736f6c652e6c6f679050602083016000808483855afa5050505050565b828054620002d6906200055c565b90600052602060002090601f016020900481019282620002fa576000855562000346565b82601f106200031557805160ff191683800117855562000346565b8280016001018555821562000346579182015b828111156200034557825182559160200191906001019062000328565b5b50905062000355919062000359565b5090565b5b80821115620003745760008160009055506001016200035a565b5090565b60006200038f6200038984620004d4565b620004ab565b905082815260208101848484011115620003a857600080fd5b620003b584828562000526565b509392505050565b600082601f830112620003cf57600080fd5b8151620003e184826020860162000378565b91505092915050565b600060208284031215620003fd57600080fd5b600082015167ffffffffffffffff8111156200041857600080fd5b6200042684828501620003bd565b91505092915050565b60006200043c826200050a565b62000448818562000515565b93506200045a81856020860162000526565b620004658162000626565b840191505092915050565b600060408201905081810360008301526200048c81856200042f565b90508181036020830152620004a281846200042f565b90509392505050565b6000620004b7620004ca565b9050620004c5828262000592565b919050565b6000604051905090565b600067ffffffffffffffff821115620004f257620004f1620005f7565b5b620004fd8262000626565b9050602081019050919050565b600081519050919050565b600082825260208201905092915050565b60005b838110156200054657808201518184015260208101905062000529565b8381111562000556576000848401525b50505050565b600060028204905060018216806200057557607f821691505b602082108114156200058c576200058b620005c8565b5b50919050565b6200059d8262000626565b810181811067ffffffffffffffff82111715620005bf57620005be620005f7565b5b80604052505050565b7f4e487b7100000000000000000000000000000000000000000000000000000000600052602260045260246000fd5b7f4e487b7100000000000000000000000000000000000000000000000000000000600052604160045260246000fd5b6000601f19601f8301169050919050565b614e0680620006476000396000f3fe60806040526004361061019c5760003560e01c806370a08231116100ec578063bf40fac11161008a578063e985e9c511610064578063e985e9c514610624578063f2c298be14610661578063fb825e5f1461067d578063fe2c6198146106a85761019c565b8063bf40fac114610581578063c1880a98146105be578063c87b56dd146105e75761019c565b806395d89b41116100c657806395d89b41146104c75780639791c097146104f2578063a22cb4651461052f578063b88d4fde146105585761019c565b806370a08231146104345780638da5cb5b146104715780638f32d59b1461049c5761019c565b8063264492351161015957806342842e0e1161013357806342842e0e146103545780634622ab031461037d578063541e771d146103ba5780636352211e146103f75761019c565b806326449235146102d55780632d551432146103125780633ccfd60b1461033d5761019c565b806301ffc9a7146101a157806306fdde03146101de578063081812fc14610209578063095ea7b31461024657806311dd88451461026f57806323b872dd146102ac575b600080fd5b3480156101ad57600080fd5b506101c860048036038101906101c39190613505565b6106e5565b6040516101d59190613e2f565b60405180910390f35b3480156101ea57600080fd5b506101f36107c7565b6040516102009190613e6e565b60405180910390f35b34801561021557600080fd5b50610230600480360381019061022b9190613652565b610859565b60405161023d9190613d8b565b60405180910390f35b34801561025257600080fd5b5061026d600480360381019061026891906134c9565b6108de565b005b34801561027b57600080fd5b5061029660048036038101906102919190613557565b6109f6565b6040516102a39190613e6e565b60405180910390f35b3480156102b857600080fd5b506102d360048036038101906102ce91906133c3565b610aa9565b005b3480156102e157600080fd5b506102fc60048036038101906102f79190613611565b610b09565b6040516103099190613d8b565b60405180910390f35b34801561031e57600080fd5b50610327610b52565b6040516103349190613e6e565b60405180910390f35b34801561034957600080fd5b50610352610be0565b005b34801561036057600080fd5b5061037b600480360381019061037691906133c3565b610ca6565b005b34801561038957600080fd5b506103a4600480360381019061039f9190613652565b610cc6565b6040516103b19190613e6e565b60405180910390f35b3480156103c657600080fd5b506103e160048036038101906103dc9190613611565b610d66565b6040516103ee9190613e6e565b60405180910390f35b34801561040357600080fd5b5061041e60048036038101906104199190613652565b610e1c565b60405161042b9190613d8b565b60405180910390f35b34801561044057600080fd5b5061045b6004803603810190610456919061335e565b610ece565b60405161046891906141a6565b60405180910390f35b34801561047d57600080fd5b50610486610f86565b6040516104939190613da6565b60405180910390f35b3480156104a857600080fd5b506104b1610fac565b6040516104be9190613e2f565b60405180910390f35b3480156104d357600080fd5b506104dc611004565b6040516104e99190613e6e565b60405180910390f35b3480156104fe57600080fd5b5061051960048036038101906105149190613557565b611096565b6040516105269190613e2f565b60405180910390f35b34801561053b57600080fd5b506105566004803603810190610551919061348d565b61114a565b005b34801561056457600080fd5b5061057f600480360381019061057a9190613412565b611160565b005b34801561058d57600080fd5b506105a860048036038101906105a39190613557565b6111c2565b6040516105b59190613d8b565b60405180910390f35b3480156105ca57600080fd5b506105e560048036038101906105e0919061359c565b61120d565b005b3480156105f357600080fd5b5061060e60048036038101906106099190613652565b6112e8565b60405161061b9190613e6e565b60405180910390f35b34801561063057600080fd5b5061064b60048036038101906106469190613387565b61143a565b6040516106589190613e2f565b60405180910390f35b61067b60048036038101906106769190613557565b6114ce565b005b34801561068957600080fd5b506106926119c5565b60405161069f9190613e0d565b60405180910390f35b3480156106b457600080fd5b506106cf60048036038101906106ca9190613557565b611c15565b6040516106dc91906141a6565b60405180910390f35b60007f80ac58cd000000000000000000000000000000000000000000000000000000007bffffffffffffffffffffffffffffffffffffffffffffffffffffffff1916827bffffffffffffffffffffffffffffffffffffffffffffffffffffffff191614806107b057507f5b5e139f000000000000000000000000000000000000000000000000000000007bffffffffffffffffffffffffffffffffffffffffffffffffffffffff1916827bffffffffffffffffffffffffffffffffffffffffffffffffffffffff1916145b806107c057506107bf82611d57565b5b9050919050565b6060600080546107d6906144d2565b80601f0160208091040260200160405190810160405280929190818152602001828054610802906144d2565b801561084f5780601f106108245761010080835404028352916020019161084f565b820191906000526020600020905b81548152906001019060200180831161083257829003601f168201915b5050505050905090565b600061086482611dc1565b6108a3576040517f08c379a000000000000000000000000000000000000000000000000000000000815260040161089a90614106565b60405180910390fd5b6004600083815260200190815260200160002060009054906101000a900473ffffffffffffffffffffffffffffffffffffffff169050919050565b60006108e982610e1c565b90508073ffffffffffffffffffffffffffffffffffffffff168373ffffffffffffffffffffffffffffffffffffffff16141561095a576040517f08c379a000000000000000000000000000000000000000000000000000000000815260040161095190614166565b60405180910390fd5b8073ffffffffffffffffffffffffffffffffffffffff16610979611e2d565b73ffffffffffffffffffffffffffffffffffffffff1614806109a857506109a7816109a2611e2d565b61143a565b5b6109e7576040517f08c379a00000000000000000000000000000000000000000000000000000000081526004016109de90614046565b60405180910390fd5b6109f18383611e35565b505050565b6060600d8383604051610a0a929190613c58565b90815260200160405180910390208054610a23906144d2565b80601f0160208091040260200160405190810160405280929190818152602001828054610a4f906144d2565b8015610a9c5780601f10610a7157610100808354040283529160200191610a9c565b820191906000526020600020905b815481529060010190602001808311610a7f57829003601f168201915b5050505050905092915050565b610aba610ab4611e2d565b82611eee565b610af9576040517f08c379a0000000000000000000000000000000000000000000000000000000008152600401610af090614186565b60405180910390fd5b610b04838383611fcc565b505050565b600c818051602081018201805184825260208301602085012081835280955050505050506000915054906101000a900473ffffffffffffffffffffffffffffffffffffffff1681565b60098054610b5f906144d2565b80601f0160208091040260200160405190810160405280929190818152602001828054610b8b906144d2565b8015610bd85780601f10610bad57610100808354040283529160200191610bd8565b820191906000526020600020905b815481529060010190602001808311610bbb57829003601f168201915b505050505081565b610be8610fac565b610bf157600080fd5b600047905060003373ffffffffffffffffffffffffffffffffffffffff1682604051610c1c90613d76565b60006040518083038185875af1925050503d8060008114610c59576040519150601f19603f3d011682016040523d82523d6000602084013e610c5e565b606091505b5050905080610ca2576040517f08c379a0000000000000000000000000000000000000000000000000000000008152600401610c9990614006565b60405180910390fd5b5050565b610cc183838360405180602001604052806000815250611160565b505050565b600e6020528060005260406000206000915090508054610ce5906144d2565b80601f0160208091040260200160405190810160405280929190818152602001828054610d11906144d2565b8015610d5e5780601f10610d3357610100808354040283529160200191610d5e565b820191906000526020600020905b815481529060010190602001808311610d4157829003601f168201915b505050505081565b600d818051602081018201805184825260208301602085012081835280955050505050506000915090508054610d9b906144d2565b80601f0160208091040260200160405190810160405280929190818152602001828054610dc7906144d2565b8015610e145780601f10610de957610100808354040283529160200191610e14565b820191906000526020600020905b815481529060010190602001808311610df757829003601f168201915b505050505081565b6000806002600084815260200190815260200160002060009054906101000a900473ffffffffffffffffffffffffffffffffffffffff169050600073ffffffffffffffffffffffffffffffffffffffff168173ffffffffffffffffffffffffffffffffffffffff161415610ec5576040517f08c379a0000000000000000000000000000000000000000000000000000000008152600401610ebc90614086565b60405180910390fd5b80915050919050565b60008073ffffffffffffffffffffffffffffffffffffffff168273ffffffffffffffffffffffffffffffffffffffff161415610f3f576040517f08c379a0000000000000000000000000000000000000000000000000000000008152600401610f3690614066565b60405180910390fd5b600360008373ffffffffffffffffffffffffffffffffffffffff1673ffffffffffffffffffffffffffffffffffffffff168152602001908152602001600020549050919050565b600760009054906101000a900473ffffffffffffffffffffffffffffffffffffffff1681565b6000600760009054906101000a900473ffffffffffffffffffffffffffffffffffffffff1673ffffffffffffffffffffffffffffffffffffffff163373ffffffffffffffffffffffffffffffffffffffff1614905090565b606060018054611013906144d2565b80601f016020809104026020016040519081016040528092919081815260200182805461103f906144d2565b801561108c5780601f106110615761010080835404028352916020019161108c565b820191906000526020600020905b81548152906001019060200180831161106f57829003601f168201915b5050505050905090565b600060036110e784848080601f016020809104026020016040519081016040528093929190818152602001838380828437600081840152601f19601f82011690508083019250505050505050612233565b101580156111425750600a61113f84848080601f016020809104026020016040519081016040528093929190818152602001838380828437600081840152601f19601f82011690508083019250505050505050612233565b11155b905092915050565b61115c611155611e2d565b838361240e565b5050565b61117161116b611e2d565b83611eee565b6111b0576040517f08c379a00000000000000000000000000000000000000000000000000000000081526004016111a790614186565b60405180910390fd5b6111bc8484848461257b565b50505050565b6000600c83836040516111d6929190613c58565b908152602001604051809103902060009054906101000a900473ffffffffffffffffffffffffffffffffffffffff16905092915050565b600c848460405161121f929190613c58565b908152602001604051809103902060009054906101000a900473ffffffffffffffffffffffffffffffffffffffff1673ffffffffffffffffffffffffffffffffffffffff163373ffffffffffffffffffffffffffffffffffffffff16146112b2576040517f82b4290000000000000000000000000000000000000000000000000000000000815260040160405180910390fd5b8181600d86866040516112c6929190613c58565b908152602001604051809103902091906112e19291906130b2565b5050505050565b60606112f382611dc1565b611332576040517f08c379a0000000000000000000000000000000000000000000000000000000008152600401611329906140e6565b60405180910390fd5b6000600660008481526020019081526020016000208054611352906144d2565b80601f016020809104026020016040519081016040528092919081815260200182805461137e906144d2565b80156113cb5780601f106113a0576101008083540402835291602001916113cb565b820191906000526020600020905b8154815290600101906020018083116113ae57829003601f168201915b5050505050905060006113dc6125d7565b90506000815114156113f2578192505050611435565b60008251111561142757808260405160200161140f929190613ca2565b60405160208183030381529060405292505050611435565b611430846125ee565b925050505b919050565b6000600560008473ffffffffffffffffffffffffffffffffffffffff1673ffffffffffffffffffffffffffffffffffffffff16815260200190815260200160002060008373ffffffffffffffffffffffffffffffffffffffff1673ffffffffffffffffffffffffffffffffffffffff16815260200190815260200160002060009054906101000a900460ff16905092915050565b600073ffffffffffffffffffffffffffffffffffffffff16600c83836040516114f8929190613c58565b908152602001604051809103902060009054906101000a900473ffffffffffffffffffffffffffffffffffffffff1673ffffffffffffffffffffffffffffffffffffffff1614611574576040517f3a81d6fc00000000000000000000000000000000000000000000000000000000815260040160405180910390fd5b61157e8282611096565b6115c15781816040517f7f19f48d0000000000000000000000000000000000000000000000000000000081526004016115b8929190613e4a565b60405180910390fd5b600073ffffffffffffffffffffffffffffffffffffffff16600c83836040516115eb929190613c58565b908152602001604051809103902060009054906101000a900473ffffffffffffffffffffffffffffffffffffffff1673ffffffffffffffffffffffffffffffffffffffff161461163a57600080fd5b60006116468383611c15565b90508034101561168b576040517f08c379a000000000000000000000000000000000000000000000000000000000815260040161168290614146565b60405180910390fd5b6000838360096040516020016116a393929190613c71565b60405160208183030381529060405290506000600a82600b6040516020016116cd93929190613cc6565b604051602081830303815290604052905060006116ea6008612695565b9050600061173b87878080601f016020809104026020016040519081016040528093929190818152602001838380828437600081840152601f19601f82011690508083019250505050505050612233565b90506000611748826126a3565b905061183c604051806060016040528060318152602001614d276031913989898080601f016020809104026020016040519081016040528093929190818152602001838380828437600081840152601f19601f82011690508083019250505050505050600980546117b8906144d2565b80601f01602080910402602001604051908101604052809291908181526020018280546117e4906144d2565b80156118315780601f1061180657610100808354040283529160200191611831565b820191906000526020600020905b81548152906001019060200180831161181457829003601f168201915b505050505086612850565b60006118728661184b876128f2565b8460405160200161185e93929190613cf7565b6040516020818303038152906040526128f2565b90506000816040516020016118879190613d54565b60405160208183030381529060405290506118b9604051806060016040528060398152602001614cee60399139612ab0565b6118f86040518060400160405280600e81526020017f46696e616c20746f6b656e55524900000000000000000000000000000000000081525082611cbb565b611919604051806060016040528060398152602001614d5860399139612ab0565b6119233386612b49565b61192d8582612b67565b33600c8b8b604051611940929190613c58565b908152602001604051809103902060006101000a81548173ffffffffffffffffffffffffffffffffffffffff021916908373ffffffffffffffffffffffffffffffffffffffff1602179055508989600e600088815260200190815260200160002091906119ae9291906130b2565b506119b96008612bdb565b50505050505050505050565b6060611a056040518060400160405280601f81526020017f47657474696e6720616c6c206e616d65732066726f6d20636f6e747261637400815250612ab0565b6000611a116008612695565b67ffffffffffffffff811115611a50577f4e487b7100000000000000000000000000000000000000000000000000000000600052604160045260246000fd5b604051908082528060200260200182016040528015611a8357816020015b6060815260200190600190039081611a6e5790505b50905060005b611a936008612695565b811015611c0d57600e60008281526020019081526020016000208054611ab8906144d2565b80601f0160208091040260200160405190810160405280929190818152602001828054611ae4906144d2565b8015611b315780601f10611b0657610100808354040283529160200191611b31565b820191906000526020600020905b815481529060010190602001808311611b1457829003601f168201915b5050505050828281518110611b6f577f4e487b7100000000000000000000000000000000000000000000000000000000600052603260045260246000fd5b6020026020010181905250611bfa6040518060400160405280601781526020017f4e616d6520666f7220746f6b656e20256420697320257300000000000000000081525082848481518110611bed577f4e487b7100000000000000000000000000000000000000000000000000000000600052603260045260246000fd5b6020026020010151612bf1565b8080611c0590614535565b915050611a89565b508091505090565b600080611c6584848080601f016020809104026020016040519081016040528093929190818152602001838380828437600081840152601f19601f82011690508083019250505050505050612233565b905060008111611c7457600080fd5b6003811415611c8e576706f05b59d3b20000915050611cb5565b6004811415611ca857670429d069189e0000915050611cb5565b67016345785d8a00009150505b92915050565b611d538282604051602401611cd1929190613e90565b6040516020818303038152906040527f4b5c4277000000000000000000000000000000000000000000000000000000007bffffffffffffffffffffffffffffffffffffffffffffffffffffffff19166020820180517bffffffffffffffffffffffffffffffffffffffffffffffffffffffff8381831617835250505050612c90565b5050565b60007f01ffc9a7000000000000000000000000000000000000000000000000000000007bffffffffffffffffffffffffffffffffffffffffffffffffffffffff1916827bffffffffffffffffffffffffffffffffffffffffffffffffffffffff1916149050919050565b60008073ffffffffffffffffffffffffffffffffffffffff166002600084815260200190815260200160002060009054906101000a900473ffffffffffffffffffffffffffffffffffffffff1673ffffffffffffffffffffffffffffffffffffffff1614159050919050565b600033905090565b816004600083815260200190815260200160002060006101000a81548173ffffffffffffffffffffffffffffffffffffffff021916908373ffffffffffffffffffffffffffffffffffffffff160217905550808273ffffffffffffffffffffffffffffffffffffffff16611ea883610e1c565b73ffffffffffffffffffffffffffffffffffffffff167f8c5be1e5ebec7d5bd14f71427d1e84f3dd0314c0f7b2291e5b200ac8c7c3b92560405160405180910390a45050565b6000611ef982611dc1565b611f38576040517f08c379a0000000000000000000000000000000000000000000000000000000008152600401611f2f90614026565b60405180910390fd5b6000611f4383610e1c565b90508073ffffffffffffffffffffffffffffffffffffffff168473ffffffffffffffffffffffffffffffffffffffff161480611f855750611f84818561143a565b5b80611fc357508373ffffffffffffffffffffffffffffffffffffffff16611fab84610859565b73ffffffffffffffffffffffffffffffffffffffff16145b91505092915050565b8273ffffffffffffffffffffffffffffffffffffffff16611fec82610e1c565b73ffffffffffffffffffffffffffffffffffffffff1614612042576040517f08c379a000000000000000000000000000000000000000000000000000000000815260040161203990613f86565b60405180910390fd5b600073ffffffffffffffffffffffffffffffffffffffff168273ffffffffffffffffffffffffffffffffffffffff1614156120b2576040517f08c379a00000000000000000000000000000000000000000000000000000000081526004016120a990613fc6565b60405180910390fd5b6120bd838383612cb9565b6120c8600082611e35565b6001600360008573ffffffffffffffffffffffffffffffffffffffff1673ffffffffffffffffffffffffffffffffffffffff168152602001908152602001600020600082825461211891906143d6565b925050819055506001600360008473ffffffffffffffffffffffffffffffffffffffff1673ffffffffffffffffffffffffffffffffffffffff168152602001908152602001600020600082825461216f91906142f5565b92505081905550816002600083815260200190815260200160002060006101000a81548173ffffffffffffffffffffffffffffffffffffffff021916908373ffffffffffffffffffffffffffffffffffffffff160217905550808273ffffffffffffffffffffffffffffffffffffffff168473ffffffffffffffffffffffffffffffffffffffff167fddf252ad1be2c89b69c2b068fc378daa952ba7f163c4a11628f55a4df523b3ef60405160405180910390a461222e838383612cbe565b505050565b60008060008084519050600092505b80821015612403576000858381518110612285577f4e487b7100000000000000000000000000000000000000000000000000000000600052603260045260246000fd5b602001015160f81c60f81b9050608060f81b817effffffffffffffffffffffffffffffffffffffffffffffffffffffffffffff191610156122d4576001836122cd91906142f5565b92506123ef565b60e060f81b817effffffffffffffffffffffffffffffffffffffffffffffffffffffffffffff191610156123165760028361230f91906142f5565b92506123ee565b60f060f81b817effffffffffffffffffffffffffffffffffffffffffffffffffffffffffffff191610156123585760038361235191906142f5565b92506123ed565b60f8801b817effffffffffffffffffffffffffffffffffffffffffffffffffffffffffffff191610156123995760048361239291906142f5565b92506123ec565b60fc60f81b817effffffffffffffffffffffffffffffffffffffffffffffffffffffffffffff191610156123db576005836123d491906142f5565b92506123eb565b6006836123e891906142f5565b92505b5b5b5b5b5082806123fb90614535565b935050612242565b829350505050919050565b8173ffffffffffffffffffffffffffffffffffffffff168373ffffffffffffffffffffffffffffffffffffffff16141561247d576040517f08c379a000000000000000000000000000000000000000000000000000000000815260040161247490613fe6565b60405180910390fd5b80600560008573ffffffffffffffffffffffffffffffffffffffff1673ffffffffffffffffffffffffffffffffffffffff16815260200190815260200160002060008473ffffffffffffffffffffffffffffffffffffffff1673ffffffffffffffffffffffffffffffffffffffff16815260200190815260200160002060006101000a81548160ff0219169083151502179055508173ffffffffffffffffffffffffffffffffffffffff168373ffffffffffffffffffffffffffffffffffffffff167f17307eab39ab6107e8899845ad3d59bd9653f200f220920489ca2b5937696c318360405161256e9190613e2f565b60405180910390a3505050565b612586848484611fcc565b61259284848484612cc3565b6125d1576040517f08c379a00000000000000000000000000000000000000000000000000000000081526004016125c890613f66565b60405180910390fd5b50505050565b606060405180602001604052806000815250905090565b60606125f982611dc1565b612638576040517f08c379a000000000000000000000000000000000000000000000000000000000815260040161262f90614126565b60405180910390fd5b60006126426125d7565b90506000815111612662576040518060200160405280600081525061268d565b8061266c846126a3565b60405160200161267d929190613ca2565b6040516020818303038152906040525b915050919050565b600081600001549050919050565b606060008214156126eb576040518060400160405280600181526020017f3000000000000000000000000000000000000000000000000000000000000000815250905061284b565b600082905060005b6000821461271d57808061270690614535565b915050600a82612716919061434b565b91506126f3565b60008167ffffffffffffffff81111561275f577f4e487b7100000000000000000000000000000000000000000000000000000000600052604160045260246000fd5b6040519080825280601f01601f1916602001820160405280156127915781602001600182028036833780820191505090505b5090505b60008514612844576001826127aa91906143d6565b9150600a856127b9919061457e565b60306127c591906142f5565b60f81b818381518110612801577f4e487b7100000000000000000000000000000000000000000000000000000000600052603260045260246000fd5b60200101907effffffffffffffffffffffffffffffffffffffffffffffffffffffffffffff1916908160001a905350600a8561283d919061434b565b9450612795565b8093505050505b919050565b6128ec8484848460405160240161286a9493929190613ec7565b6040516020818303038152906040527f9fd009f5000000000000000000000000000000000000000000000000000000007bffffffffffffffffffffffffffffffffffffffffffffffffffffffff19166020820180517bffffffffffffffffffffffffffffffffffffffffffffffffffffffff8381831617835250505050612c90565b50505050565b6060600082519050600081141561291b5760405180602001604052806000815250915050612aab565b6000600360028361292c91906142f5565b612936919061434b565b6004612942919061437c565b9050600060208261295391906142f5565b67ffffffffffffffff811115612992577f4e487b7100000000000000000000000000000000000000000000000000000000600052604160045260246000fd5b6040519080825280601f01601f1916602001820160405280156129c45781602001600182028036833780820191505090505b5090506000604051806060016040528060408152602001614d91604091399050600181016020830160005b86811015612a685760038101905062ffffff818a015116603f8160121c168401518060081b905060ff603f83600c1c1686015116810190508060081b905060ff603f8360061c1686015116810190508060081b905060ff603f831686015116810190508060e01b905080845260048401935050506129ef565b506003860660018114612a825760028114612a9257612a9d565b613d3d60f01b6002830352612a9d565b603d60f81b60018303525b508484525050819450505050505b919050565b612b4681604051602401612ac49190613e6e565b6040516020818303038152906040527f41304fac000000000000000000000000000000000000000000000000000000007bffffffffffffffffffffffffffffffffffffffffffffffffffffffff19166020820180517bffffffffffffffffffffffffffffffffffffffffffffffffffffffff8381831617835250505050612c90565b50565b612b63828260405180602001604052806000815250612e5a565b5050565b612b7082611dc1565b612baf576040517f08c379a0000000000000000000000000000000000000000000000000000000008152600401612ba6906140a6565b60405180910390fd5b80600660008481526020019081526020016000209080519060200190612bd6929190613138565b505050565b6001816000016000828254019250508190555050565b612c8b838383604051602401612c0993929190613f21565b6040516020818303038152906040527fa3f5c739000000000000000000000000000000000000000000000000000000007bffffffffffffffffffffffffffffffffffffffffffffffffffffffff19166020820180517bffffffffffffffffffffffffffffffffffffffffffffffffffffffff8381831617835250505050612c90565b505050565b60008151905060006a636f6e736f6c652e6c6f679050602083016000808483855afa5050505050565b505050565b505050565b6000612ce48473ffffffffffffffffffffffffffffffffffffffff16612eb5565b15612e4d578373ffffffffffffffffffffffffffffffffffffffff1663150b7a02612d0d611e2d565b8786866040518563ffffffff1660e01b8152600401612d2f9493929190613dc1565b602060405180830381600087803b158015612d4957600080fd5b505af1925050508015612d7a57506040513d601f19601f82011682018060405250810190612d77919061352e565b60015b612dfd573d8060008114612daa576040519150601f19603f3d011682016040523d82523d6000602084013e612daf565b606091505b50600081511415612df5576040517f08c379a0000000000000000000000000000000000000000000000000000000008152600401612dec90613f66565b60405180910390fd5b805181602001fd5b63150b7a0260e01b7bffffffffffffffffffffffffffffffffffffffffffffffffffffffff1916817bffffffffffffffffffffffffffffffffffffffffffffffffffffffff191614915050612e52565b600190505b949350505050565b612e648383612ed8565b612e716000848484612cc3565b612eb0576040517f08c379a0000000000000000000000000000000000000000000000000000000008152600401612ea790613f66565b60405180910390fd5b505050565b6000808273ffffffffffffffffffffffffffffffffffffffff163b119050919050565b600073ffffffffffffffffffffffffffffffffffffffff168273ffffffffffffffffffffffffffffffffffffffff161415612f48576040517f08c379a0000000000000000000000000000000000000000000000000000000008152600401612f3f906140c6565b60405180910390fd5b612f5181611dc1565b15612f91576040517f08c379a0000000000000000000000000000000000000000000000000000000008152600401612f8890613fa6565b60405180910390fd5b612f9d60008383612cb9565b6001600360008473ffffffffffffffffffffffffffffffffffffffff1673ffffffffffffffffffffffffffffffffffffffff1681526020019081526020016000206000828254612fed91906142f5565b92505081905550816002600083815260200190815260200160002060006101000a81548173ffffffffffffffffffffffffffffffffffffffff021916908373ffffffffffffffffffffffffffffffffffffffff160217905550808273ffffffffffffffffffffffffffffffffffffffff16600073ffffffffffffffffffffffffffffffffffffffff167fddf252ad1be2c89b69c2b068fc378daa952ba7f163c4a11628f55a4df523b3ef60405160405180910390a46130ae60008383612cbe565b5050565b8280546130be906144d2565b90600052602060002090601f0160209004810192826130e05760008555613127565b82601f106130f957803560ff1916838001178555613127565b82800160010185558215613127579182015b8281111561312657823582559160200191906001019061310b565b5b50905061313491906131be565b5090565b828054613144906144d2565b90600052602060002090601f01602090048101928261316657600085556131ad565b82601f1061317f57805160ff19168380011785556131ad565b828001600101855582156131ad579182015b828111156131ac578251825591602001919060010190613191565b5b5090506131ba91906131be565b5090565b5b808211156131d75760008160009055506001016131bf565b5090565b60006131ee6131e9846141e6565b6141c1565b90508281526020810184848401111561320657600080fd5b613211848285614490565b509392505050565b600061322c61322784614217565b6141c1565b90508281526020810184848401111561324457600080fd5b61324f848285614490565b509392505050565b60008135905061326681614c91565b92915050565b60008135905061327b81614ca8565b92915050565b60008135905061329081614cbf565b92915050565b6000815190506132a581614cbf565b92915050565b600082601f8301126132bc57600080fd5b81356132cc8482602086016131db565b91505092915050565b60008083601f8401126132e757600080fd5b8235905067ffffffffffffffff81111561330057600080fd5b60208301915083600182028301111561331857600080fd5b9250929050565b600082601f83011261333057600080fd5b8135613340848260208601613219565b91505092915050565b60008135905061335881614cd6565b92915050565b60006020828403121561337057600080fd5b600061337e84828501613257565b91505092915050565b6000806040838503121561339a57600080fd5b60006133a885828601613257565b92505060206133b985828601613257565b9150509250929050565b6000806000606084860312156133d857600080fd5b60006133e686828701613257565b93505060206133f786828701613257565b925050604061340886828701613349565b9150509250925092565b6000806000806080858703121561342857600080fd5b600061343687828801613257565b945050602061344787828801613257565b935050604061345887828801613349565b925050606085013567ffffffffffffffff81111561347557600080fd5b613481878288016132ab565b91505092959194509250565b600080604083850312156134a057600080fd5b60006134ae85828601613257565b92505060206134bf8582860161326c565b9150509250929050565b600080604083850312156134dc57600080fd5b60006134ea85828601613257565b92505060206134fb85828601613349565b9150509250929050565b60006020828403121561351757600080fd5b600061352584828501613281565b91505092915050565b60006020828403121561354057600080fd5b600061354e84828501613296565b91505092915050565b6000806020838503121561356a57600080fd5b600083013567ffffffffffffffff81111561358457600080fd5b613590858286016132d5565b92509250509250929050565b600080600080604085870312156135b257600080fd5b600085013567ffffffffffffffff8111156135cc57600080fd5b6135d8878288016132d5565b9450945050602085013567ffffffffffffffff8111156135f757600080fd5b613603878288016132d5565b925092505092959194509250565b60006020828403121561362357600080fd5b600082013567ffffffffffffffff81111561363d57600080fd5b6136498482850161331f565b91505092915050565b60006020828403121561366457600080fd5b600061367284828501613349565b91505092915050565b600061368783836137bc565b905092915050565b6136988161441c565b82525050565b6136a78161440a565b82525050565b60006136b88261426d565b6136c2818561429b565b9350836020820285016136d485614248565b8060005b8581101561371057848403895281516136f1858261367b565b94506136fc8361428e565b925060208a019950506001810190506136d8565b50829750879550505050505092915050565b61372b8161442e565b82525050565b600061373c82614278565b61374681856142ac565b935061375681856020860161449f565b61375f8161466b565b840191505092915050565b600061377683856142d9565b9350613783838584614490565b61378c8361466b565b840190509392505050565b60006137a383856142ea565b93506137b0838584614490565b82840190509392505050565b60006137c782614283565b6137d181856142c8565b93506137e181856020860161449f565b6137ea8161466b565b840191505092915050565b600061380082614283565b61380a81856142d9565b935061381a81856020860161449f565b6138238161466b565b840191505092915050565b600061383982614283565b61384381856142ea565b935061385381856020860161449f565b80840191505092915050565b6000815461386c816144d2565b61387681866142ea565b9450600182166000811461389157600181146138a2576138d5565b60ff198316865281860193506138d5565b6138ab85614258565b60005b838110156138cd578154818901526001820191506020810190506138ae565b838801955050505b50505092915050565b60006138eb6032836142d9565b91506138f68261467c565b604082019050919050565b600061390e6025836142d9565b9150613919826146cb565b604082019050919050565b6000613931601c836142d9565b915061393c8261471a565b602082019050919050565b6000613954605c836142ea565b915061395f82614743565b605c82019050919050565b60006139776024836142d9565b9150613982826147b8565b604082019050919050565b600061399a6019836142d9565b91506139a582614807565b602082019050919050565b60006139bd6018836142d9565b91506139c882614830565b602082019050919050565b60006139e0602c836142d9565b91506139eb82614859565b604082019050919050565b6000613a036038836142d9565b9150613a0e826148a8565b604082019050919050565b6000613a266001836142ea565b9150613a31826148f7565b600182019050919050565b6000613a49602a836142d9565b9150613a5482614920565b604082019050919050565b6000613a6c6029836142d9565b9150613a778261496f565b604082019050919050565b6000613a8f602e836142d9565b9150613a9a826149be565b604082019050919050565b6000613ab26002836142ea565b9150613abd82614a0d565b600282019050919050565b6000613ad56020836142d9565b9150613ae082614a36565b602082019050919050565b6000613af86031836142d9565b9150613b0382614a5f565b604082019050919050565b6000613b1b602c836142d9565b9150613b2682614aae565b604082019050919050565b6000613b3e602f836142d9565b9150613b4982614afd565b604082019050919050565b6000613b616015836142d9565b9150613b6c82614b4c565b602082019050919050565b6000613b84600a836142ea565b9150613b8f82614b75565b600a82019050919050565b6000613ba76021836142d9565b9150613bb282614b9e565b604082019050919050565b6000613bca601d836142ea565b9150613bd582614bed565b601d82019050919050565b6000613bed600c836142ea565b9150613bf882614c16565b600c82019050919050565b6000613c106000836142bd565b9150613c1b82614c3f565b600082019050919050565b6000613c336031836142d9565b9150613c3e82614c42565b604082019050919050565b613c5281614486565b82525050565b6000613c65828486613797565b91508190509392505050565b6000613c7e828587613797565b9150613c8982613a19565b9150613c95828461385f565b9150819050949350505050565b6000613cae828561382e565b9150613cba828461382e565b91508190509392505050565b6000613cd2828661385f565b9150613cde828561382e565b9150613cea828461385f565b9150819050949350505050565b6000613d0282613b77565b9150613d0e828661382e565b9150613d1982613947565b9150613d25828561382e565b9150613d3082613be0565b9150613d3c828461382e565b9150613d4782613aa5565b9150819050949350505050565b6000613d5f82613bbd565b9150613d6b828461382e565b915081905092915050565b6000613d8182613c03565b9150819050919050565b6000602082019050613da0600083018461369e565b92915050565b6000602082019050613dbb600083018461368f565b92915050565b6000608082019050613dd6600083018761369e565b613de3602083018661369e565b613df06040830185613c49565b8181036060830152613e028184613731565b905095945050505050565b60006020820190508181036000830152613e2781846136ad565b905092915050565b6000602082019050613e446000830184613722565b92915050565b60006020820190508181036000830152613e6581848661376a565b90509392505050565b60006020820190508181036000830152613e8881846137f5565b905092915050565b60006040820190508181036000830152613eaa81856137f5565b90508181036020830152613ebe81846137f5565b90509392505050565b60006080820190508181036000830152613ee181876137f5565b90508181036020830152613ef581866137f5565b90508181036040830152613f0981856137f5565b9050613f186060830184613c49565b95945050505050565b60006060820190508181036000830152613f3b81866137f5565b9050613f4a6020830185613c49565b8181036040830152613f5c81846137f5565b9050949350505050565b60006020820190508181036000830152613f7f816138de565b9050919050565b60006020820190508181036000830152613f9f81613901565b9050919050565b60006020820190508181036000830152613fbf81613924565b9050919050565b60006020820190508181036000830152613fdf8161396a565b9050919050565b60006020820190508181036000830152613fff8161398d565b9050919050565b6000602082019050818103600083015261401f816139b0565b9050919050565b6000602082019050818103600083015261403f816139d3565b9050919050565b6000602082019050818103600083015261405f816139f6565b9050919050565b6000602082019050818103600083015261407f81613a3c565b9050919050565b6000602082019050818103600083015261409f81613a5f565b9050919050565b600060208201905081810360008301526140bf81613a82565b9050919050565b600060208201905081810360008301526140df81613ac8565b9050919050565b600060208201905081810360008301526140ff81613aeb565b9050919050565b6000602082019050818103600083015261411f81613b0e565b9050919050565b6000602082019050818103600083015261413f81613b31565b9050919050565b6000602082019050818103600083015261415f81613b54565b9050919050565b6000602082019050818103600083015261417f81613b9a565b9050919050565b6000602082019050818103600083015261419f81613c26565b9050919050565b60006020820190506141bb6000830184613c49565b92915050565b60006141cb6141dc565b90506141d78282614504565b919050565b6000604051905090565b600067ffffffffffffffff8211156142015761420061463c565b5b61420a8261466b565b9050602081019050919050565b600067ffffffffffffffff8211156142325761423161463c565b5b61423b8261466b565b9050602081019050919050565b6000819050602082019050919050565b60008190508160005260206000209050919050565b600081519050919050565b600081519050919050565b600081519050919050565b6000602082019050919050565b600082825260208201905092915050565b600082825260208201905092915050565b600081905092915050565b600082825260208201905092915050565b600082825260208201905092915050565b600081905092915050565b600061430082614486565b915061430b83614486565b9250827fffffffffffffffffffffffffffffffffffffffffffffffffffffffffffffffff038211156143405761433f6145af565b5b828201905092915050565b600061435682614486565b915061436183614486565b925082614371576143706145de565b5b828204905092915050565b600061438782614486565b915061439283614486565b9250817fffffffffffffffffffffffffffffffffffffffffffffffffffffffffffffffff04831182151516156143cb576143ca6145af565b5b828202905092915050565b60006143e182614486565b91506143ec83614486565b9250828210156143ff576143fe6145af565b5b828203905092915050565b600061441582614466565b9050919050565b600061442782614466565b9050919050565b60008115159050919050565b60007fffffffff0000000000000000000000000000000000000000000000000000000082169050919050565b600073ffffffffffffffffffffffffffffffffffffffff82169050919050565b6000819050919050565b82818337600083830152505050565b60005b838110156144bd5780820151818401526020810190506144a2565b838111156144cc576000848401525b50505050565b600060028204905060018216806144ea57607f821691505b602082108114156144fe576144fd61460d565b5b50919050565b61450d8261466b565b810181811067ffffffffffffffff8211171561452c5761452b61463c565b5b80604052505050565b600061454082614486565b91507fffffffffffffffffffffffffffffffffffffffffffffffffffffffffffffffff821415614573576145726145af565b5b600182019050919050565b600061458982614486565b915061459483614486565b9250826145a4576145a36145de565b5b828206905092915050565b7f4e487b7100000000000000000000000000000000000000000000000000000000600052601160045260246000fd5b7f4e487b7100000000000000000000000000000000000000000000000000000000600052601260045260246000fd5b7f4e487b7100000000000000000000000000000000000000000000000000000000600052602260045260246000fd5b7f4e487b7100000000000000000000000000000000000000000000000000000000600052604160045260246000fd5b6000601f19601f8301169050919050565b7f4552433732313a207472616e7366657220746f206e6f6e20455243373231526560008201527f63656976657220696d706c656d656e7465720000000000000000000000000000602082015250565b7f4552433732313a207472616e736665722066726f6d20696e636f72726563742060008201527f6f776e6572000000000000000000000000000000000000000000000000000000602082015250565b7f4552433732313a20746f6b656e20616c7265616479206d696e74656400000000600082015250565b7f222c20226465736372697074696f6e223a20224120646f6d61696e206f6e207460008201527f6865204e696e6a61206e616d652073657276696365222c2022696d616765223a60208201527f2022646174613a696d6167652f7376672b786d6c3b6261736536342c00000000604082015250565b7f4552433732313a207472616e7366657220746f20746865207a65726f2061646460008201527f7265737300000000000000000000000000000000000000000000000000000000602082015250565b7f4552433732313a20617070726f766520746f2063616c6c657200000000000000600082015250565b7f4661696c656420746f207769746864726177204d617469630000000000000000600082015250565b7f4552433732313a206f70657261746f7220717565727920666f72206e6f6e657860008201527f697374656e7420746f6b656e0000000000000000000000000000000000000000602082015250565b7f4552433732313a20617070726f76652063616c6c6572206973206e6f74206f7760008201527f6e6572206e6f7220617070726f76656420666f7220616c6c0000000000000000602082015250565b7f2e00000000000000000000000000000000000000000000000000000000000000600082015250565b7f4552433732313a2062616c616e636520717565727920666f7220746865207a6560008201527f726f206164647265737300000000000000000000000000000000000000000000602082015250565b7f4552433732313a206f776e657220717565727920666f72206e6f6e657869737460008201527f656e7420746f6b656e0000000000000000000000000000000000000000000000602082015250565b7f45524337323155524953746f726167653a2055524920736574206f66206e6f6e60008201527f6578697374656e7420746f6b656e000000000000000000000000000000000000602082015250565b7f227d000000000000000000000000000000000000000000000000000000000000600082015250565b7f4552433732313a206d696e7420746f20746865207a65726f2061646472657373600082015250565b7f45524337323155524953746f726167653a2055524920717565727920666f722060008201527f6e6f6e6578697374656e7420746f6b656e000000000000000000000000000000602082015250565b7f4552433732313a20617070726f76656420717565727920666f72206e6f6e657860008201527f697374656e7420746f6b656e0000000000000000000000000000000000000000602082015250565b7f4552433732314d657461646174613a2055524920717565727920666f72206e6f60008201527f6e6578697374656e7420746f6b656e0000000000000000000000000000000000602082015250565b7f4e6f7420656e6f756768204d6174696320706169640000000000000000000000600082015250565b7f7b226e616d65223a202200000000000000000000000000000000000000000000600082015250565b7f4552433732313a20617070726f76616c20746f2063757272656e74206f776e6560008201527f7200000000000000000000000000000000000000000000000000000000000000602082015250565b7f646174613a6170706c69636174696f6e2f6a736f6e3b6261736536342c000000600082015250565b7f222c226c656e677468223a220000000000000000000000000000000000000000600082015250565b50565b7f4552433732313a207472616e736665722063616c6c6572206973206e6f74206f60008201527f776e6572206e6f7220617070726f766564000000000000000000000000000000602082015250565b614c9a8161440a565b8114614ca557600080fd5b50565b614cb18161442e565b8114614cbc57600080fd5b50565b614cc88161443a565b8114614cd357600080fd5b50565b614cdf81614486565b8114614cea57600080fd5b5056fe0a2d2d2d2d2d2d2d2d2d2d2d2d2d2d2d2d2d2d2d2d2d2d2d2d2d2d2d2d2d2d2d2d2d2d2d2d2d2d2d2d2d2d2d2d2d2d2d2d2d2d2d2d2d2d2d2d5265676973746572696e672025732e2573206f6e2074686520636f6e7472616374207769746820746f6b656e49442025642d2d2d2d2d2d2d2d2d2d2d2d2d2d2d2d2d2d2d2d2d2d2d2d2d2d2d2d2d2d2d2d2d2d2d2d2d2d2d2d2d2d2d2d2d2d2d2d2d2d2d2d2d2d2d2d0a4142434445464748494a4b4c4d4e4f505152535455565758595a6162636465666768696a6b6c6d6e6f707172737475767778797a303132333435363738392b2fa26469706673582212205637dd13a4580664b81c3ba39e8cf91e996e831e3d64bb179fb993b5e560f10964736f6c634300080400333c73766720786d6c6e733d22687474703a2f2f7777772e77332e6f72672f323030302f737667222077696474683d2232373022206865696768743d22323730222066696c6c3d226e6f6e65223e3c706174682066696c6c3d2275726c282342292220643d224d302030683237307632373048307a222f3e3c646566733e3c66696c7465722069643d22412220636f6c6f722d696e746572706f6c6174696f6e2d66696c746572733d2273524742222066696c746572556e6974733d227573657253706163654f6e55736522206865696768743d22323730222077696474683d22323730223e3c666544726f70536861646f772064783d2230222064793d22312220737464446576696174696f6e3d22322220666c6f6f642d6f7061636974793d222e323235222077696474683d223230302522206865696768743d2232303025222f3e3c2f66696c7465723e3c2f646566733e3c7061746820643d224d37322e3836332034322e393439632d2e3636382d2e3338372d312e3432362d2e35392d322e3139372d2e3539732d312e3532392e3230342d322e3139372e35396c2d31302e30383120362e3033322d362e383520332e3933342d31302e30383120362e303332632d2e3636382e3338372d312e3432362e35392d322e3139372e3539732d312e3532392d2e3230342d322e3139372d2e35396c2d382e3031332d342e37323161342e353220342e35322030203020312d312e3538392d312e363136632d2e3338342d2e3636352d2e3539342d312e3431382d2e3630382d322e313837762d392e3331632d2e3031332d2e3737352e3138352d312e3533382e3537322d322e32303861342e323520342e323520302030203120312e3632352d312e3539356c372e3838342d342e3539632e3636382d2e33383720312e3432362d2e353920322e3139372d2e353973312e3532392e32303420322e3139372e35396c372e38383420342e353961342e353220342e353220302030203120312e35383920312e363136632e3338342e3636352e35393420312e3431382e36303820322e31383776362e3033326c362e38352d342e303635762d362e303332632e3031332d2e3737352d2e3138352d312e3533382d2e3537322d322e32303861342e323520342e32352030203020302d312e3632352d312e3539354c34312e3435362032342e3539632d2e3636382d2e3338372d312e3432362d2e35392d322e3139372d2e3539732d312e3532392e3230342d322e3139372e35396c2d31342e38363420382e36353561342e323520342e32352030203020302d312e36323520312e353935632d2e3338372e36372d2e35383520312e3433342d2e35373220322e3230387631372e343431632d2e3031332e3737352e31383520312e3533382e35373220322e32303861342e323520342e323520302030203020312e36323520312e3539356c31342e38363420382e363535632e3636382e33383720312e3432362e353920322e3139372e353973312e3532392d2e32303420322e3139372d2e35396c31302e3038312d352e39303120362e38352d342e3036352031302e3038312d352e393031632e3636382d2e33383720312e3432362d2e353920322e3139372d2e353973312e3532392e32303420322e3139372e35396c372e38383420342e353961342e353220342e353220302030203120312e35383920312e363136632e3338342e3636352e35393420312e3431382e36303820322e31383776392e333131632e3031332e3737352d2e31383520312e3533382d2e35373220322e32303861342e323520342e32352030203020312d312e36323520312e3539356c2d372e38383420342e373231632d2e3636382e3338372d312e3432362e35392d322e3139372e3539732d312e3532392d2e3230342d322e3139372d2e35396c2d372e3838342d342e353961342e353220342e35322030203020312d312e3538392d312e363136632d2e3338352d2e3636352d2e3539342d312e3431382d2e3630382d322e313837762d362e3033326c2d362e383520342e30363576362e303332632d2e3031332e3737352e31383520312e3533382e35373220322e32303861342e323520342e323520302030203020312e36323520312e3539356c31342e38363420382e363535632e3636382e33383720312e3432362e353920322e3139372e353973312e3532392d2e32303420322e3139372d2e35396c31342e3836342d382e363535632e3635372d2e33393420312e3230342d2e393520312e3538392d312e363136732e3539342d312e3431382e3630392d322e3138375635352e353338632e3031332d2e3737352d2e3138352d312e3533382d2e3537322d322e32303861342e323520342e32352030203020302d312e3632352d312e3539356c2d31342e3939332d382e3738367a222066696c6c3d2223666666222f3e3c646566733e3c6c696e6561724772616469656e742069643d2242222078313d2230222079313d2230222078323d22323730222079323d2232373022206772616469656e74556e6974733d227573657253706163654f6e557365223e3c73746f702073746f702d636f6c6f723d2223636235656565222f3e3c73746f70206f66667365743d2231222073746f702d636f6c6f723d2223306364376534222073746f702d6f7061636974793d222e3939222f3e3c2f6c696e6561724772616469656e743e3c2f646566733e3c7465787420783d2233322e352220793d223233312220666f6e742d73697a653d223237222066696c6c3d2223666666222066696c7465723d2275726c282341292220666f6e742d66616d696c793d22506c7573204a616b617274612053616e732c44656a6156752053616e732c4e6f746f20436f6c6f7220456d6f6a692c4170706c6520436f6c6f7220456d6f6a692c73616e732d73657269662220666f6e742d7765696768743d22626f6c64223e",
    "linkReferences": {},
    "deployedLinkReferences": {}
}